{
  "contractName": "VotingSystem",
  "abi": [
    {
      "inputs": [
        {
          "internalType": "string",
          "name": "_ballotofficialName",
          "type": "string"
        },
        {
          "internalType": "string",
          "name": "_proposal",
          "type": "string"
        }
      ],
      "stateMutability": "nonpayable",
      "type": "constructor"
    },
    {
      "inputs": [],
      "name": "BallotOfficialAddress",
      "outputs": [
        {
          "internalType": "address",
          "name": "",
          "type": "address"
        }
      ],
      "stateMutability": "view",
      "type": "function"
    },
    {
      "inputs": [],
      "name": "Finalresult",
      "outputs": [
        {
          "internalType": "uint256",
          "name": "",
          "type": "uint256"
        }
      ],
      "stateMutability": "view",
      "type": "function"
    },
    {
      "inputs": [],
      "name": "ballotofficialName",
      "outputs": [
        {
          "internalType": "string",
          "name": "",
          "type": "string"
        }
      ],
      "stateMutability": "view",
      "type": "function"
    },
    {
      "inputs": [],
      "name": "proposal",
      "outputs": [
        {
          "internalType": "string",
          "name": "",
          "type": "string"
        }
      ],
      "stateMutability": "view",
      "type": "function"
    },
    {
      "inputs": [],
      "name": "state",
      "outputs": [
        {
          "internalType": "enum VotingSystem.State",
          "name": "",
          "type": "uint8"
        }
      ],
      "stateMutability": "view",
      "type": "function"
    },
    {
      "inputs": [],
      "name": "totalvote",
      "outputs": [
        {
          "internalType": "uint256",
          "name": "",
          "type": "uint256"
        }
      ],
      "stateMutability": "view",
      "type": "function"
    },
    {
      "inputs": [],
      "name": "totalvoter",
      "outputs": [
        {
          "internalType": "uint256",
          "name": "",
          "type": "uint256"
        }
      ],
      "stateMutability": "view",
      "type": "function"
    },
    {
      "inputs": [
        {
          "internalType": "address",
          "name": "",
          "type": "address"
        }
      ],
      "name": "voterRegister",
      "outputs": [
        {
          "internalType": "string",
          "name": "voterName",
          "type": "string"
        },
        {
          "internalType": "bool",
          "name": "voted",
          "type": "bool"
        }
      ],
      "stateMutability": "view",
      "type": "function"
    },
    {
      "inputs": [
        {
          "internalType": "address",
          "name": "_voterAddress",
          "type": "address"
        },
        {
          "internalType": "string",
          "name": "_voterName",
          "type": "string"
        }
      ],
      "name": "addVoter",
      "outputs": [],
      "stateMutability": "nonpayable",
      "type": "function"
    },
    {
      "inputs": [],
      "name": "StartVote",
      "outputs": [],
      "stateMutability": "nonpayable",
      "type": "function"
    },
    {
      "inputs": [
        {
          "internalType": "bool",
          "name": "_choice",
          "type": "bool"
        }
      ],
      "name": "doVote",
      "outputs": [
        {
          "internalType": "bool",
          "name": "voted",
          "type": "bool"
        }
      ],
      "stateMutability": "nonpayable",
      "type": "function"
    },
    {
      "inputs": [],
      "name": "EndVote",
      "outputs": [],
      "stateMutability": "nonpayable",
      "type": "function"
    }
  ],
  "bytecode": "0x6080604052600080556000600155600060025560006003553480156200002457600080fd5b50604051620014983803806200149883398181016040528101906200004a919062000340565b33600460006101000a81548173ffffffffffffffffffffffffffffffffffffffff021916908373ffffffffffffffffffffffffffffffffffffffff1602179055508160059080519060200190620000a3929190620000f3565b508060069080519060200190620000bc929190620000f3565b506000600960006101000a81548160ff02191690836002811115620000e657620000e5620003c5565b5b0217905550505062000458565b828054620001019062000423565b90600052602060002090601f01602090048101928262000125576000855562000171565b82601f106200014057805160ff191683800117855562000171565b8280016001018555821562000171579182015b828111156200017057825182559160200191906001019062000153565b5b50905062000180919062000184565b5090565b5b808211156200019f57600081600090555060010162000185565b5090565b6000604051905090565b600080fd5b600080fd5b600080fd5b600080fd5b6000601f19601f8301169050919050565b7f4e487b7100000000000000000000000000000000000000000000000000000000600052604160045260246000fd5b6200020c82620001c1565b810181811067ffffffffffffffff821117156200022e576200022d620001d2565b5b80604052505050565b600062000243620001a3565b905062000251828262000201565b919050565b600067ffffffffffffffff821115620002745762000273620001d2565b5b6200027f82620001c1565b9050602081019050919050565b60005b83811015620002ac5780820151818401526020810190506200028f565b83811115620002bc576000848401525b50505050565b6000620002d9620002d38462000256565b62000237565b905082815260208101848484011115620002f857620002f7620001bc565b5b620003058482856200028c565b509392505050565b600082601f830112620003255762000324620001b7565b5b815162000337848260208601620002c2565b91505092915050565b600080604083850312156200035a5762000359620001ad565b5b600083015167ffffffffffffffff8111156200037b576200037a620001b2565b5b62000389858286016200030d565b925050602083015167ffffffffffffffff811115620003ad57620003ac620001b2565b5b620003bb858286016200030d565b9150509250929050565b7f4e487b7100000000000000000000000000000000000000000000000000000000600052602160045260246000fd5b7f4e487b7100000000000000000000000000000000000000000000000000000000600052602260045260246000fd5b600060028204905060018216806200043c57607f821691505b602082108103620004525762000451620003f4565b5b50919050565b61103080620004686000396000f3fe608060405234801561001057600080fd5b50600436106100b45760003560e01c8063a350d31011610071578063a350d3101461016b578063a5e2b65614610189578063af154087146101a7578063c19d93fb146101d8578063d9e95a98146101f6578063ff943e3a14610212576100b4565b80630ae4bc4a146100b95780634b885c9e146100d757806372a413a9146100f5578063753ec103146100ff57806387caea781461011d57806398c35ed61461014d575b600080fd5b6100c161021c565b6040516100ce9190610aa2565b60405180910390f35b6100df610222565b6040516100ec9190610aa2565b60405180910390f35b6100fd610228565b005b6101076102fa565b6040516101149190610b56565b60405180910390f35b61013760048036038101906101329190610bc4565b610388565b6040516101449190610c00565b60405180910390f35b6101556105ee565b6040516101629190610b56565b60405180910390f35b61017361067c565b6040516101809190610aa2565b60405180910390f35b610191610682565b60405161019e9190610c5c565b60405180910390f35b6101c160048036038101906101bc9190610ca3565b6106a8565b6040516101cf929190610cd0565b60405180910390f35b6101e0610761565b6040516101ed9190610d77565b60405180910390f35b610210600480360381019061020b9190610ec7565b610774565b005b61021a6108cf565b005b60035481565b60015481565b600180600281111561023d5761023c610d00565b5b600960009054906101000a900460ff16600281111561025f5761025e610d00565b5b1461026957600080fd5b600460009054906101000a900473ffffffffffffffffffffffffffffffffffffffff1673ffffffffffffffffffffffffffffffffffffffff163373ffffffffffffffffffffffffffffffffffffffff16146102c357600080fd5b6002600960006101000a81548160ff021916908360028111156102e9576102e8610d00565b5b021790555060005460018190555050565b6006805461030790610f52565b80601f016020809104026020016040519081016040528092919081815260200182805461033390610f52565b80156103805780601f1061035557610100808354040283529160200191610380565b820191906000526020600020905b81548152906001019060200180831161036357829003601f168201915b505050505081565b6000600180600281111561039f5761039e610d00565b5b600960009054906101000a900460ff1660028111156103c1576103c0610d00565b5b146103cb57600080fd5b600080600860003373ffffffffffffffffffffffffffffffffffffffff1673ffffffffffffffffffffffffffffffffffffffff168152602001908152602001600020600001805461041b90610f52565b9050141580156104785750600860003373ffffffffffffffffffffffffffffffffffffffff1673ffffffffffffffffffffffffffffffffffffffff16815260200190815260200160002060010160009054906101000a900460ff16155b156105e4576001600860003373ffffffffffffffffffffffffffffffffffffffff1673ffffffffffffffffffffffffffffffffffffffff16815260200190815260200160002060010160006101000a81548160ff0219169083151502179055506104e0610998565b33816000019073ffffffffffffffffffffffffffffffffffffffff16908173ffffffffffffffffffffffffffffffffffffffff16815250508481602001901515908115158152505084156105465760008081548092919061054090610fb2565b91905055505b8060076000600354815260200190815260200160002060008201518160000160006101000a81548173ffffffffffffffffffffffffffffffffffffffff021916908373ffffffffffffffffffffffffffffffffffffffff16021790555060208201518160000160146101000a81548160ff021916908315150217905550905050600360008154809291906105d990610fb2565b919050555060019150505b8092505050919050565b600580546105fb90610f52565b80601f016020809104026020016040519081016040528092919081815260200182805461062790610f52565b80156106745780601f1061064957610100808354040283529160200191610674565b820191906000526020600020905b81548152906001019060200180831161065757829003601f168201915b505050505081565b60025481565b600460009054906101000a900473ffffffffffffffffffffffffffffffffffffffff1681565b60086020528060005260406000206000915090508060000180546106cb90610f52565b80601f01602080910402602001604051908101604052809291908181526020018280546106f790610f52565b80156107445780601f1061071957610100808354040283529160200191610744565b820191906000526020600020905b81548152906001019060200180831161072757829003601f168201915b5050505050908060010160009054906101000a900460ff16905082565b600960009054906101000a900460ff1681565b600080600281111561078957610788610d00565b5b600960009054906101000a900460ff1660028111156107ab576107aa610d00565b5b146107b557600080fd5b600460009054906101000a900473ffffffffffffffffffffffffffffffffffffffff1673ffffffffffffffffffffffffffffffffffffffff163373ffffffffffffffffffffffffffffffffffffffff161461080f57600080fd5b6108176109ca565b828160000181905250600081602001901515908115158152505080600860008673ffffffffffffffffffffffffffffffffffffffff1673ffffffffffffffffffffffffffffffffffffffff168152602001908152602001600020600082015181600001908051906020019061088d9291906109e6565b5060208201518160010160006101000a81548160ff021916908315150217905550905050600260008154809291906108c490610fb2565b919050555050505050565b60008060028111156108e4576108e3610d00565b5b600960009054906101000a900460ff16600281111561090657610905610d00565b5b1461091057600080fd5b600460009054906101000a900473ffffffffffffffffffffffffffffffffffffffff1673ffffffffffffffffffffffffffffffffffffffff163373ffffffffffffffffffffffffffffffffffffffff161461096a57600080fd5b6001600960006101000a81548160ff021916908360028111156109905761098f610d00565b5b021790555050565b6040518060400160405280600073ffffffffffffffffffffffffffffffffffffffff1681526020016000151581525090565b6040518060400160405280606081526020016000151581525090565b8280546109f290610f52565b90600052602060002090601f016020900481019282610a145760008555610a5b565b82601f10610a2d57805160ff1916838001178555610a5b565b82800160010185558215610a5b579182015b82811115610a5a578251825591602001919060010190610a3f565b5b509050610a689190610a6c565b5090565b5b80821115610a85576000816000905550600101610a6d565b5090565b6000819050919050565b610a9c81610a89565b82525050565b6000602082019050610ab76000830184610a93565b92915050565b600081519050919050565b600082825260208201905092915050565b60005b83811015610af7578082015181840152602081019050610adc565b83811115610b06576000848401525b50505050565b6000601f19601f8301169050919050565b6000610b2882610abd565b610b328185610ac8565b9350610b42818560208601610ad9565b610b4b81610b0c565b840191505092915050565b60006020820190508181036000830152610b708184610b1d565b905092915050565b6000604051905090565b600080fd5b600080fd5b60008115159050919050565b610ba181610b8c565b8114610bac57600080fd5b50565b600081359050610bbe81610b98565b92915050565b600060208284031215610bda57610bd9610b82565b5b6000610be884828501610baf565b91505092915050565b610bfa81610b8c565b82525050565b6000602082019050610c156000830184610bf1565b92915050565b600073ffffffffffffffffffffffffffffffffffffffff82169050919050565b6000610c4682610c1b565b9050919050565b610c5681610c3b565b82525050565b6000602082019050610c716000830184610c4d565b92915050565b610c8081610c3b565b8114610c8b57600080fd5b50565b600081359050610c9d81610c77565b92915050565b600060208284031215610cb957610cb8610b82565b5b6000610cc784828501610c8e565b91505092915050565b60006040820190508181036000830152610cea8185610b1d565b9050610cf96020830184610bf1565b9392505050565b7f4e487b7100000000000000000000000000000000000000000000000000000000600052602160045260246000fd5b60038110610d4057610d3f610d00565b5b50565b6000819050610d5182610d2f565b919050565b6000610d6182610d43565b9050919050565b610d7181610d56565b82525050565b6000602082019050610d8c6000830184610d68565b92915050565b600080fd5b600080fd5b7f4e487b7100000000000000000000000000000000000000000000000000000000600052604160045260246000fd5b610dd482610b0c565b810181811067ffffffffffffffff82111715610df357610df2610d9c565b5b80604052505050565b6000610e06610b78565b9050610e128282610dcb565b919050565b600067ffffffffffffffff821115610e3257610e31610d9c565b5b610e3b82610b0c565b9050602081019050919050565b82818337600083830152505050565b6000610e6a610e6584610e17565b610dfc565b905082815260208101848484011115610e8657610e85610d97565b5b610e91848285610e48565b509392505050565b600082601f830112610eae57610ead610d92565b5b8135610ebe848260208601610e57565b91505092915050565b60008060408385031215610ede57610edd610b82565b5b6000610eec85828601610c8e565b925050602083013567ffffffffffffffff811115610f0d57610f0c610b87565b5b610f1985828601610e99565b9150509250929050565b7f4e487b7100000000000000000000000000000000000000000000000000000000600052602260045260246000fd5b60006002820490506001821680610f6a57607f821691505b602082108103610f7d57610f7c610f23565b5b50919050565b7f4e487b7100000000000000000000000000000000000000000000000000000000600052601160045260246000fd5b6000610fbd82610a89565b91507fffffffffffffffffffffffffffffffffffffffffffffffffffffffffffffffff8203610fef57610fee610f83565b5b60018201905091905056fea26469706673582212204ef22db8b13305f85d01acac317d50c826a249fb365f840315f9274bf8ced8bb64736f6c634300080e0033",
  "immutableReferences": {},
  "source": "// SPDX-License-Identifier: MIT\npragma solidity ^0.8.0;\n// secrete ballot \n// 1address one vote\n// transperency clear and understood by everyone\n// accurately counted\n// reliablity\n\ncontract VotingSystem {\n    // variable decleration\n    struct vote{\n        address voterAddress;\n        bool choice;\n    }\n\n    struct voter {\n        string voterName;\n        bool voted;\n    }\n\n    uint private countResult = 0;\n    uint public Finalresult = 0;\n    uint public totalvoter = 0;\n    uint public totalvote = 0;\n\n    address public BallotOfficialAddress;\n    string public ballotofficialName;\n    string public proposal;\n\n    mapping(uint => vote) private votes;\n    mapping(address => voter) public voterRegister;\n\n\n    enum State {created, Voting, Ended}\n    State public state;\n\n\n\n    // modofires\n    modifier condition(bool _condition){\n        require(_condition);\n        _;\n    }\n\n    modifier onlyOfficial(){\n        require(msg.sender == BallotOfficialAddress);\n        _;\n    }\n    modifier inState(State _state) {\n        require(state == _state);\n        _;\n    }\n\n     \n\n    // events\n\n    // functions\n    constructor(string memory _ballotofficialName, string memory _proposal){\n        BallotOfficialAddress = msg.sender;\n        ballotofficialName = _ballotofficialName;\n        proposal = _proposal;\n\n        state = State.created;\n    }\n\n    function addVoter(address _voterAddress, string memory _voterName) public inState(State.created) onlyOfficial {\n        voter memory v;\n        v.voterName = _voterName;\n        v.voted = false;\n        voterRegister[_voterAddress] = v;\n        totalvoter++;\n    }\n\n    function StartVote() public inState(State.created) onlyOfficial{\n        state = State.Voting;\n    }\n\n    function doVote(bool _choice) public inState(State.Voting) returns (bool voted) {\n        bool found = false;\n\n        if(bytes(voterRegister[msg.sender].voterName).length != 0 && !voterRegister[msg.sender].voted){\n            voterRegister[msg.sender].voted = true;\n            vote memory v;\n            v.voterAddress = msg.sender;\n            v.choice = _choice;\n            if(_choice){\n                countResult++;\n            }\n            votes[totalvote] = v;\n            totalvote++;\n            found = true;\n        }\n        return found;\n    }\n\n    function EndVote() public inState(State.Voting) onlyOfficial {\n        state = State.Ended;\n        Finalresult = countResult;\n\n    }\n}\n",
  "sourcePath": "C:\\Users\\Prince-Joel\\voting\\contracts\\VotingSystem.sol",
  "compiler": {
    "name": "solc",
    "version": "0.8.14+commit.80d49f37.Emscripten.clang"
  },
  "schemaVersion": "3.4.7",
  "updatedAt": "2022-07-06T03:00:36.720Z",
  "devdoc": {
    "kind": "dev",
    "methods": {},
    "version": 1
  },
  "userdoc": {
    "kind": "user",
    "methods": {},
    "version": 1
  }
}